:100000000C9450010C9478010C9478010C947801B4
:100010000C9478010C9478010C9478010C94711173
:100020000C9478010C9478010C9478010C9478016C
:100030000C9478010C9478010C9478010C9478015C
:100040000C944B120C9478010C9419120C94F3112B
:100050000C9478010C9478010C9478010C9478013C
:100060000C9495120C9478011F1C1F1E1F1E1F1F3D
:100070001E1F1E00000000240027002A00000000B0
:100080000800020100000304070000000000000057
:1000900000525443206C6F737420706F7765722C1C
:1000A0002073657420636F72726563742074696D68
:1000B000652100334420436C6F636B205043422022
:1000C000746573740020646F6573206E6F742065AF
:1000D000786973742100436F6D6D616E6420002D2B
:1000E0002D2D2D2D2D2048454C50202D2D2D2D2DE5
:1000F0002D0A7274635F61646A757374202D2041E8
:10010000646A75737473205254432074696D650A70
:10011000727463202D205072696E7473206375723F
:1001200072656E742074696D6520616E64207465FB
:100130006D70657261747572650A7365676D656E61
:100140007473202D20546573747320656163682077
:10015000636F6C6F720A62757A7A6572202D205413
:10016000657374732062757A7A6572207769746832
:1001700020637573746F6D206F72206861726463A1
:100180006F64656420667265710A64687431312039
:100190002D205072696E74732068756D696469747E
:1001A0007920616E642074656D706572617475721A
:1001B000650A636F6C6F7273202D20536574732012
:1001C0006F6E65206F7220616C6C204C454420740A
:1001D0006F206365727469616E20636F6C6F720A61
:1001E0007265736574202D20536F66742072657379
:1001F000657400436F6D6D616E64206E6565647338
:1002000020332F206F72203420706172616D732152
:10021000007274635F61646A757374205B59656111
:1002200072202D20323030305D2C5B4D6F6E746843
:100230005D2C5B4461795D2C5B486F75725D2C5B56
:100240004D696E7574655D2C5B5365636F6E645D9F
:10025000004E65772074696D652069733A2000004F
:1002600000000023002600290000000000250028CF
:10027000002B000204040404040404040202020229
:100280000202030303030303010204081020408059
:10029000010204081020010204081020B413B71949
:1002A00011241FBECFEFD8E0DEBFCDBF24E0A4E015
:1002B000B2E001C01D92A534B207E1F712E0A0E060
:1002C000B1E0EAEDFBE302C005900D92A430B10766
:1002D000D9F711E0CFE4D1E004C02197FE010E94DC
:1002E000861CCE34D107C9F70E9480140C94E01DFF
:1002F0000C94000090913D0380913C032FEF3FEF61
:10030000981748F4E92FF0E0E45EFC4F208130E0DC
:100310009F5F90933D03C901089590913D038091A3
:100320003C032FEF3FEF981748F4E92FF0E0E45E2D
:10033000FC4F208130E09F5F90933D03C9010895F9
:10034000CF92DF92EF92FF92CF93DF93B091180498
:10035000A0E08111AB2F8091190490E0880F991FC4
:10036000AC01415A5D4FC0901E04D0901F04E09034
:100370002004F090210430E020E0FA01C591D491EE
:10038000E881B90190E080E0EB23EA130AC02F5F17
:100390003F4F6C157D058E059F0578F36FEF7FEF5E
:1003A000CB01DF91CF91FF90EF90DF90CF90089538
:1003B00080E991E0089508950895AF92BF92CF9299
:1003C000DF92EF92FF920F931F93CF93DF936C0115
:1003D0007B018B01040F151FEB015E01AE18BF08F6
:1003E000C017D10759F06991D601ED91FC910190A8
:1003F000F081E02DC6010995892B79F7C501DF91C0
:10040000CF911F910F91FF90EF90DF90CF90BF9011
:10041000AF900895FC01538D448D252F30E0842F3B
:1004200090E0821B930B541710F0CF96089501971C
:100430000895FC01918D828D981761F0A28DAE0F09
:10044000BF2FB11D5D968C91928D9F5F9F73928F90
:1004500090E008958FEF9FEF0895FC01918D828DBC
:10046000981731F0828DE80FF11D858D90E0089589
:100470008FEF9FEF0895FC01918D228D892F90E0E1
:10048000805C9F4F821B91098F73992708958BE59C
:1004900093E00E943B0221E0892B09F420E0822FA7
:1004A000089580E090E0892B29F00E944702811195
:1004B0000C9400000895FC01A48DA80FB92FB11D64
:1004C000A35ABF4F2C91848D90E001968F7399278A
:1004D000848FA689B7892C93A089B1898C91837068
:1004E00080648C93938D848D981306C00288F38961
:1004F000E02D80818F7D80830895EF92FF920F938E
:100500001F93CF93DF93EC0181E0888F9B8D8C8DBF
:1005100098131AC0E889F989808185FF15C09FB7B3
:10052000F894EE89FF896083E889F9898081837076
:10053000806480839FBF81E090E0DF91CF911F9125
:100540000F91FF90EF900895F62E0B8D10E00F5F46
:100550001F4F0F731127E02E8C8D8E110CC00FB61C
:1005600007FCFACFE889F989808185FFF5CFCE01B4
:100570000E945B02F1CFEB8DEC0FFD2FF11DE35AD2
:10058000FF4FF0829FB7F8940B8FEA89FB89808137
:100590008062CFCF0F931F93CF93DF938C01D0E076
:1005A000C0E0F801EC0FFD1F6491662341F08BE57C
:1005B00093E00E947D02892B11F02196F2CFCE01AB
:1005C000DF91CF911F910F910895682F8BE593E0F4
:1005D0000C947D02CF93DF93EC01888D8823B9F0D2
:1005E000AA89BB89E889F9898C9185FD03C080813E
:1005F00086FD0DC00FB607FCF7CF8C9185FFF2CFBB
:10060000808185FFEDCFCE010E945B02E9CFDF91B3
:10061000CF91089590E0FC01E358FF4F2491FC0135
:10062000E857FD4F3491FC01EC58FD4FE491EE2367
:10063000C9F0222339F0233001F1A8F4213019F157
:10064000223029F1F0E0EE0FFF1FE759FD4FA59191
:10065000B4918FB7F894EC91611126C030953E2388
:100660003C938FBF08952730A9F02830C9F024307B
:1006700049F7809180008F7D03C0809180008F7743
:1006800080938000DFCF84B58F7784BDDBCF84B5C6
:100690008F7DFBCF8091B0008F778093B000D2CF59
:1006A0008091B0008F7DF9CF3E2BDACFCF93DF93CF
:1006B00090E0FC01E857FD4F24918C589D4FFC01C0
:1006C00084918823D1F090E0880F991FFC01ED58A8
:1006D000FF4FA591B491FC01E759FD4FC591D4910D
:1006E000623071F49FB7F8943C91822F80958323F8
:1006F0008C93E8812E2B28839FBFDF91CF910895A3
:100700008FB7F894EC912E2B2C938FBFF6CF4F928E
:100710005F926F927F928F929F92AF92BF92CF9291
:10072000DF92EF92FF920F931F93CF93DF9300D04E
:1007300000D01F92CDB7DEB78C012A013B0180911A
:1007400000018930C9F08F3F09F47FC00F900F90EE
:100750000F900F900F90DF91CF911F910F91FF900D
:10076000EF90DF90CF90BF90AF909F908F907F9051
:100770006F905F904F900895E3E7F2E084918D834E
:1007800087FDE4CF61E089E00E9456038D818823D4
:1007900021F09D81923009F05CC14801B12CA12C5F
:1007A00060E072E18AE790E0A50198010E94601C78
:1007B00029833A834B835C8369017A0181E0C81AFB
:1007C000D108E108F1089FEFC916D104E104F10452
:1007D00009F00CF413C160E472E48FE090E0A5012D
:1007E00098010E94601C69017A0181E0C81AD10851
:1007F000E108F1089D81923009F098C08FEFC8168A
:10080000D104E104F10409F00CF4DDC160E970EDFC
:1008100083E090E0A50198010E94601C69017A01C3
:1008200091E0C91AD108E108F1088FEFC816D10488
:10083000E104F10411F00CF0A3C183E09091B10048
:10084000987F892B8093B100E1C089E080930001FB
:10085000E3E7F2E094919D839F3F09F477CF9130D5
:1008600029F158F0923009F43FC08D8187FD6ECF99
:1008700061E089E00E9456038CCF14BC15BC84B59E
:10088000826084BD85B5816085BDEDE7F2E0E491CD
:10089000F0E0EE0FFF1FE759FD4F85919491E1E9DC
:1008A000F2E0E491E09342031D826CCF109280004D
:1008B00010928100809181008860809381008091F6
:1008C0008100816080938100EDE7F2E0E491F0E047
:1008D000EE0FFF1FE759FD4F85919491E1E9F2E09A
:1008E000E491E09341034ECF1092B0001092B1001A
:1008F0008091B00082608093B0008091B1008160EF
:100900008093B100EDE7F2E0E491F0E0EE0FFF1F1D
:10091000E759FD4F859194919093400380933F0355
:10092000E1E9F2E0E491E0933E032CCF9FEFC9169A
:10093000D104E104F10409F00CF489C068E478EE14
:1009400081E090E0A50198010E94601C69017A0194
:1009500081E0C81AD108E108F1089D81992309F4C2
:1009600028C19FEFC916D104E104F10409F00CF489
:100970001EC162E17AE780E090E0A50194010E9447
:10098000601C69017A0181E0C81AD108E108F10808
:100990009D81992309F4EBC08FEFC816D104E104BF
:1009A000F10411F008F0BFC086E048CF64E274EFB4
:1009B00080E090E0A50194010E94601C69017A0129
:1009C00081E0C81AD108E108F10885E09FEFC91657
:1009D000D104E104F10409F008F430CF62E17AE7D0
:1009E00080E090E0A50194010E94601C69017A01F9
:1009F00091E0C91AD108E108F108CECF81E09D81CC
:100A000091111CCF95B5987F892B85BD2FEF3FEFB6
:100A1000A901411451046104710409F043C09D818E
:100A2000913009F45EC0923009F46DC091118ECE00
:100A3000C7BC20934B0330934C0340934D0350931A
:100A40004E0380916E00826080936E007FCE82E0C4
:100A5000D6CFB12CA12C60E072E18AE790E0A5012D
:100A600098010E94601C69017A0181E0C81AD108CE
:100A7000E108F108C114D10491E0E906F10404F59C
:100A800091E08D81813011F680918100887F892BE2
:100A9000809381002FEF3FEFA901411451046104BD
:100AA0007104F9F0D801AA0FBB1FA30192010E94A3
:100AB0003A1B28EE33E040E050E00E943E1CAFCFEE
:100AC00068E478EE81E090E0A50198010E94601C46
:100AD00069017A0181E0C81AD108E108F10893E0C0
:100AE000D0CFD0928900C0928800209347033093E2
:100AF00048034093490350934A0380916F008260FA
:100B000080936F0023CEC092B300209343033093B1
:100B100044034093450350934603809170008260E4
:100B20008093700013CEC980DA80EB80FC809AE05D
:100B3000F594E794D794C7949A95D1F791E0C91AA0
:100B4000D108E108F10887E079CEC980DA80EB802E
:100B5000FC808AE0F594E794D794C7948A95D1F7FE
:100B600091E0C91AD108E108F10885E04BCF8FEF79
:100B7000C816D104E104F10409F038F784E042CF4B
:100B800068E478EE81E090E0A50198010E94601C85
:100B900069017A0191E0C91AD108E108F1088FEFE3
:100BA000C816D104E104F10411F00CF0FFCE84E08A
:100BB00045CE8FEFC816D104E104F10411F00CF01A
:100BC000D8CE83E01FCF82E039CE3FB7F894809132
:100BD0004F0290915002A0915102B091520226B55D
:100BE000A89B05C02F3F19F00196A11DB11D3FBF65
:100BF000BA2FA92F982F8827BC01CD01620F711D34
:100C0000811D911D42E0660F771F881F991F4A952D
:100C1000D1F708958F929F92AF92BF92CF92DF92B9
:100C2000EF92FF926B017C010E94E5054B015C0194
:100C3000C114D104E104F104B9F00E94E50568197A
:100C400079098A099B09683E73408105910580F303
:100C500021E0C21AD108E108F10888EE880E83E08D
:100C6000981EA11CB11CE4CFFF90EF90DF90CF90B5
:100C7000BF90AF909F908F9008952FB7F894609198
:100C80004B0270914C0280914D0290914E022FBF09
:100C900008954F925F926F927F929F92AF92BF9210
:100CA000CF92DF92EF92FF920F931F93CF93DF9338
:100CB00000D01F92CDB7DEB7F090040480910704F6
:100CC00090910804A0910904B0910A04892B8A2B01
:100CD0008B2BD9F00E94E505009157031091580322
:100CE0002091590330915A03601B710B820B930BB7
:100CF00000910704109108042091090430910A041E
:100D00006017710782079307C8F20E94E505609398
:100D10005703709358038093590390935A03E091BB
:100D20000F04F0911004309759F040910B0450914A
:100D30000C0460910D0470910E048F2D0995F82E0E
:100D400000915503109156034F2C512C712C612C9E
:100D50000115110509F45EC0D8011C96EC901C9792
:100D600080910504909106048436910510F41C9638
:100D70001C92D801ED91FC91A280B38019821A8255
:100D80001B82FF2089F1F8013696D12CC12C2191CC
:100D9000222319F19280992001F130E050E040E0E7
:100DA0002F5F3F4F4F4F5F4FC301B2010E94FA1BAD
:100DB0009B01AC01892D90E0B0E0A0E0BC01CD0129
:100DC0006F5F7F4F8F4F9F4F0E94FA1BA1E0B0E0F3
:100DD000AC0FBD1FAC0DBD1D8C93BFEFCB1ADB0A52
:100DE00083E0C816D10499F6D8011D964D915C9107
:100DF0001E9712966D917C919E012F5F3F4FC80107
:100E0000F5010995D8011C96EC921C9714960D914A
:100E10001C919ECF80915303909154038C010F5FDE
:100E20001F4F10935403009353034997B4F10E944A
:100E30003D06C0904F03D0905003E0905103F090D6
:100E400052039B01AC012C193D094E095F0921F4A5
:100E500021E030E040E050E088EE93E0089FB001F0
:100E6000099F700D189F700D1124072E000C880B20
:100E7000990B0E943E1C30930604209305041092A7
:100E80005403109253030E943D0660934F037093E6
:100E9000500380935103909352030F900F900F9043
:100EA000DF91CF911F910F91FF90EF90DF90CF9046
:100EB000BF90AF909F907F906F905F904F900895FC
:100EC000CF92DF92EF92FF920F931F93CF93DF9316
:100ED000CDB7DEB7C054D1400FB6F894DEBF0FBE19
:100EE000CDBF0E943D0600911A0410911B04209171
:100EF0001C0430911D046B017C01C01AD10AE20A66
:100F0000F30A97018601003D17402105310590F451
:100F100080912204C05CDE4F0FB6F894DEBF0FBE96
:100F2000CDBFDF91CF911F910F91FF90EF90DF9098
:100F3000CF90089560931A0470931B0480931C044F
:100F400090931D041092150410921404109213042F
:100F5000109212041092110462E0809116040E9413
:100F6000560361E070E080E090E00E940A0661E0D4
:100F7000809116040E94560360E0809116040E943E
:100F80000A03809117048551823020F58BE291E1AC
:100F90000197F1F762E0809116040E945603809158
:100FA000230490E08230910538F0880F991F880F54
:100FB000991F05970197F1F7F89480E00E94A0012E
:100FC0006F3F7F4F8F4F9F4F61F4109222047894B0
:100FD00080E0A0CF64E170E080E090E00E940A062B
:100FE000D9CF81E00E94A0016F3F7F4F8F4F9F4F6D
:100FF00061F38E010F5F1F4F6E012FEBC21A2EEFB0
:10100000D20A780180E00E94A001F7016083718319
:101010008283938381E00E94A001F701648375833A
:1010200086839783F8E0EF0EF11CEC14FD0451F772
:10103000789430E020E0F801C080D180E280F38035
:101040004481558166817781FFEFCF16DF06EF0679
:10105000FF0631F04F3F8FEF58076807780719F404
:1010600010922204B5CFF90183E0F595E7958A95B2
:10107000E1F7EF5EFB4F8081880FC416D506E606C8
:10108000F70610F180832F5F3F4F085F1F4F283214
:10109000310589F6409115042091110480911204C4
:1010A000280F3327331F80911304280F311D80919F
:1010B0001404820F932F911D99274817190681F662
:1010C00081E08093220426CF8160DCCF209127022B
:1010D000260F3327331F21323105ECF420911603FC
:1010E000FC0190E080E0243069F082E00895A09156
:1010F00027022191AC01495F5D4FA40FB52FB11DAF
:101100002C930196861798F380912702680F6093BD
:10111000270280E0089581E008951092160381E08F
:10112000809315031092100361E082E10E940A038C
:1011300061E083E10E940A03E9EBF0E080818E7FA9
:10114000808380818D7F808388E48093B80085E4EC
:101150008093BC000895CF93DF9391E090930602B3
:101160008823B9F0C091B800D091BA008091BC003A
:101170008A7B8093BC0060E082E10E940A0360E009
:1011800083E10E940A030E948D08D093BA00C093A5
:10119000B800DF91CF910895CF92DF92EF92FF9246
:1011A0000F931F93CF93DF93D82FC62F613208F090
:1011B00098C00E94E5056B017C01809116038111A6
:1011C0006BC081E080931603809315039FEF90938B
:1011D0001403109213039C0F909312038093110336
:1011E00080911103DD0FD82BD09311038091100350
:1011F000813009F078C0109210030E94E5056B0160
:101200007C01809111038093BB0080911803909121
:101210001903A0911A03B0911B03892B8A2B8B2BE6
:10122000A1F00E94E5050091180310911903209187
:101230001A0330911B036C197D098E099F0906174B
:1012400017072807390708F448C08091BC0083FDC0
:10125000D8CF85EC8093BC000E94E5056B017C0132
:1012600080911603813009F440C0809113038C17DC
:1012700010F4C0911303E0EFF2E0ACE1B3E080E0E2
:101280008C1355C08C2FDF91CF911F910F91FF9040
:10129000EF90DF90CF9008958091180390911903FB
:1012A000A0911A03B0911B03892B8A2B8B2B09F475
:1012B00084CF0E94E5050091180310911903209135
:1012C0001A0330911B036C197D098E099F090617BB
:1012D00017072807390708F070CF809117030E947D
:1012E000AB08C0E0CFCF85EEB5CF809118039091C9
:1012F0001903A0911A03B0911B03892B8A2B8B2B06
:1013000009F4AECF0E94E50500911803109119036E
:1013100020911A0330911B036C197D098E099F09D6
:10132000061717072807390708F09ACFD6CF9191EB
:101330009D938F5FA5CFCF92DF92EF92FF920F9395
:101340001F93CF93DF93D091EF0281E0D13208F069
:101350009CC0C091EE020E94E5056B017C0180916A
:10136000160381116CC082E08093160381E08093A4
:1013700015038FEF8093140310921303D09312037D
:10138000AEECB2E0E0EFF2E080E0D8138DC0109256
:10139000110380911103CC0FC82BC09311038091CE
:1013A0001003813009F084C0109210030E94E505FB
:1013B0006B017C01809111038093BB008091180325
:1013C00090911903A0911A03B0911B03892B8A2BCA
:1013D0008B2BA1F00E94E5050091180310911903D1
:1013E00020911A0330911B036C197D098E099F0906
:1013F000061717072807390708F442C08091BC0078
:1014000083FDD8CF85EC8093BC000E94E5056B017D
:101410007C0180911603823009F44CC08091140342
:101420008F3F09F469C080911403803209F466C0CB
:1014300080911403803309F463C084E026C0809156
:10144000180390911903A0911A03B0911B03892BE3
:101450008A2B8B2B09F483CF0E94E505009118039A
:101460001091190320911A0330911B036C197D0907
:101470008E099F09061717072807390708F06FCF4D
:10148000809117030E94AB0885E01092CD02109264
:10149000EF021092CC02DF91CF911F910F91FF903C
:1014A000EF90DF90CF9008959D9191938F5F6DCFD6
:1014B00085EEA9CF8091180390911903A0911A038A
:1014C000B0911B03892B8A2B8B2B09F4A2CF0E948E
:1014D000E505009118031091190320911A0330912A
:1014E0001B036C197D098E099F090617170728072A
:1014F000390708F08ECFC4CF80E0C7CF82E0C5CFD8
:1015000083E0C3CF0895E0913D0380913C03E81749
:1015100030F4F0E0E45EFC4F808190E008958FEFBE
:101520009FEF089580913C0390913D03891B990B97
:101530000895CF92DF92EF92FF920F931F93CF9374
:10154000DF937C01CB018A012091CC02222389F018
:10155000EB016B01C40ED51ECC15DD0569F0699158
:10156000D701ED91FC910190F081E02DC701099523
:10157000F3CF642F0E946608C801DF91CF911F91BD
:101580000F91FF90EF90DF90CF900895CF93DF936E
:101590001F92CDB7DEB769832091CC022223F9F0E8
:1015A0002091EF02203258F021E030E0FC0133833B
:1015B000228390E080E00F90DF91CF910895809199
:1015C000CD02E82FF0E0E253FD4F998190838F5FC9
:1015D0008093CD028093EF0281E090E0ECCF61E058
:1015E000CE0101960E946608F7CF90E080E0089552
:1015F0000F931F93CF93DF93209105022F5F322F1C
:1016000037703093050220FF2BC020E831FD2064A5
:10161000347009F02062205FFC01EC01239600E0A9
:1016200011E06485662329F070E0C8010E942A1C3D
:101630006F5F6187322F369F030E30E0311D11241A
:10164000311110C01682662311F061506187319606
:10165000EC17FD0731F7DF91CF911F910F9108959E
:1016600020E0D4CF31503683EECF4F925F926F920D
:101670007F928F92AF92BF92CF92DF92EF920F93B1
:101680001F93CF93DF933C01EB010E94E505F3012B
:1016900027853089621B730B6A307105B0F3F894AB
:1016A000E881F9817BB170626BB16F7D6BB9CA84DF
:1016B0008F812C2D281B822F2F83BF844A805B8033
:1016C0001D850C85DE841F5F0F5FD3949E81388556
:1016D000A984EB844181D20120E0C32F522F322F05
:1016E0003181442788943111380F08F43FEF8195F8
:1016F000889410FD430F4795889411FD430F47953B
:10170000889412FD430F4795889413FD430F479526
:10171000889414FD430F4795889415FD430F479512
:10172000889416FD430F4795889417FD430F4795FE
:101730008894232F1111242F8C0D422F002C7BB95C
:1017400000C047FF6BB930812227889400C000C0D9
:10175000002C6BB93111390F00C0002C7BB900C0CF
:1017600046FF6BB908F43FEF9195889400C000C024
:10177000002C6BB900FD230F00C0002C7BB900C00A
:1017800045FF6BB92795889401FD230F00C000C069
:10179000002C6BB92795889400C0002C7BB900C041
:1017A00044FF6BB902FD230F2795889400C000C049
:1017B000002C6BB903FD230F00C0002C7BB900C0C7
:1017C00043FF6BB92795889404FD230F00C000C028
:1017D000002C6BB92795889400C0002C7BB900C001
:1017E00042FF6BB905FD230F2795889400C000C008
:1017F000002C6BB906FD230F00C0002C7BB900C084
:1018000041FF6BB92795889407FD230F00C000C0E6
:10181000002C6BB92795889400C0002C7BB900C0C0
:1018200040FF6BB9432F0111422F9A0D00C000C039
:10183000002C6BB900C000C0002C7BB900C047FF72
:101840006BB932812227889400C000C0002C6BB98C
:1018500031113C0F00C0002C7BB900C046FF6BB9B2
:1018600008F43FEFEB0DF11D00C000C0002C6BB978
:10187000D0FC230F00C0002C7BB900C045FF6BB922
:1018800027958894D1FC230F00C000C0002C6BB9B1
:101890002795889400C0002C7BB900C044FF6BB929
:1018A000D2FC230F2795889400C000C0002C6BB990
:1018B000D3FC230F00C0002C7BB900C043FF6BB9E1
:1018C00027958894D4FC230F00C000C0002C6BB96E
:1018D0002795889400C0002C7BB900C042FF6BB9EB
:1018E000D5FC230F2795889400C000C0002C6BB94D
:1018F000D6FC230F00C0002C7BB900C041FF6BB9A0
:1019000027958894D7FC230F00C000C0002C6BB92A
:101910002795889400C0002C7BB900C040FF6BB9AC
:10192000432FD110422FC19500C000C0002C6BB9CD
:10193000CE0D00C000C07BB900C047FF6BB931813C
:101940002227889400C000C0002C6BB93111380FD9
:1019500000C0002C7BB900C046FF6BB908F43FEF14
:101960008195889400C000C0002C6BB910FD230F36
:1019700000C0002C7BB900C045FF6BB92795889447
:1019800011FD230F00C000C0002C6BB9279588946F
:1019900000C0002C7BB900C044FF6BB912FD230FBF
:1019A0002795889400C000C0002C6BB913FD230F4D
:1019B00000C0002C7BB900C043FF6BB92795889409
:1019C00014FD230F00C000C0002C6BB9279588942C
:1019D00000C0002C7BB900C042FF6BB915FD230F7E
:1019E0002795889400C000C0002C6BB916FD230F0A
:1019F00000C0002C7BB900C041FF6BB927958894CB
:101A000017FD230F00C000C0002C6BB927958894E8
:101A100000C0002C7BB900C040FF6BB9432F1111EF
:101A2000422F8C0D00C000C0002C6BB9119709F03B
:101A300086CE20EE31E0D2010E947F1CDC01CB017A
:101A4000F4E0B695A79597958795FA95D1F730E08C
:101A500020E0B901EAE94E9E040C611D5E9E600D16
:101A6000711D1124650D711D860F971FA11DB11DDC
:101A7000893E43E09407A105B10508F434C0885EAF
:101A80009340A109B10942E0B695A795979587952E
:101A90004A95D1F747E0849F080E211D949F200DA1
:101AA000311D1124290F311D6091040270E0860F51
:101AB000971F820F931F40914B0250914C026091EF
:101AC0004D0270914E02292F3327420F531F611D83
:101AD000711D40934B0250934C0260934D027093E2
:101AE0004E028093040278940E94E505F301708B06
:101AF0006787DF91CF911F910F91EF90DF90CF908B
:101B0000BF90AF908F907F906F905F904F900895AF
:101B1000559A08950F931F93CF93DF93CDB7DEB7F8
:101B200062970FB6F894DEBF0FBECDBF8C01F901EE
:101B3000DC011C968C917A8369835C834B835E8382
:101B40004D8390819D8791819E8792819F8781306F
:101B5000F1F4CE0101960E94F80A83E0888B1A8A7C
:101B6000198AD801ED91FC910484F585E02DBE0120
:101B70006F5F7F4FC801099562960FB6F894DEBF7C
:101B80000FBECDBFDF91CF911F910F9108951C869D
:101B90001B861A86198618861F82DFCF0F931F9324
:101BA000CF93DF93CDB7DEB762970FB6F894DEBF61
:101BB0000FBECDBF8C01F901DC011C968C917A839C
:101BC00069835C834B835E834D8390819D87918184
:101BD0009E8792819F878130E9F4CE0101960E9411
:101BE000F80A188A1A8A198AD801ED91FC9104849E
:101BF000F585E02DBE016F5F7F4FC80109956296A4
:101C00000FB6F894DEBF0FBECDBFDF91CF911F910D
:101C10000F9108951C861B861A86198618861F82C6
:101C2000E0CF90E080E00895FC01858596850895D9
:101C3000CF93DF9300D000D000D0CDB7DEB7AB019B
:101C40001C821D821E82DC01ED91FC910190F081CD
:101C5000E02D19821A821B829E012F5F3F4FBE0129
:101C60006C5F7F4F099526960FB6F894DEBF0FBEC6
:101C7000CDBFDF91CF91089581E08093CC0288E6BB
:101C80008093EE021092CD021092EF026FE088EF87
:101C900093E00E94C60A0E949B0961E088E60E94C8
:101CA000CC0810923D0380933C030E948D0108955F
:101CB000FC0101900020E9F73197AF01481B590B57
:101CC000BC018BE593E00C94DD01CF93DF930E9480
:101CD000CA02EC0181EA91E00E94580E8C0F9D1F10
:101CE000DF91CF9108958F929F92AF92BF920F9301
:101CF0001F93CF93DF93CDB7DEB7A1970FB6F894BC
:101D0000DEBF0FBECDBF19A2423008F44AE08E01FB
:101D10000F5D1F4F842E912CB12CA12CA501940195
:101D20000E943E1CE62FB901CA01EA30F4F4E05DDE
:101D3000D801EE938D01232B242B252B79F790E0EE
:101D400080E0109719F0CD010E94580EA1960FB6B1
:101D5000F894DEBF0FBECDBFDF91CF911F910F91E1
:101D6000BF90AF909F908F900895E95CE1CF4F9224
:101D70005F926F927F928F929F92AF92BF92CF921B
:101D8000DF92EF92FF926B017C01AC019B010E94FC
:101D9000F51B882381F084EA91E0FF90EF90DF90BB
:101DA000CF90BF90AF909F908F907F906F905F90FB
:101DB0004F900C94580E46015701E894B7F82FEF56
:101DC0003FEF4FE75FE7C501B4010E94F51B8111AA
:101DD0000DC02FEF3FEF4FE75FE7C501B4010E9451
:101DE000161A18161CF488EA91E0D7CF2FEF3FEFB0
:101DF0004FE75FE4C701B6010E94F01B18161CF400
:101E00008CEA91E0CACF2FEF3FEF4FE75FECC701BD
:101E1000B6010E94161A87FDF3CF20E030E0A90139
:101E2000C701B6010E94161AB12CA12C87FF08C069
:101E30008DE20E94E5025C01F7FAF094F7F8F09465
:101E40002AE037ED43EA5BE3C701B6010E94551B68
:101E50002B013C010E94C11B6B017C010E941B1ADB
:101E60009B01AC01C301B2010E94541B2B013C0138
:101E70004AE0C701B6010E94730E7C01EA0CFB1C0C
:101E80008EE20E94E502E80EF91E20E030E040E21A
:101E900051E4C301B2010E947C1A2B013C010E9453
:101EA000C11B4B01B12CA12C4AE0C501B4010E9419
:101EB000730EE80EF91EC501B4010E941B1A9B01A6
:101EC000AC01C301B2010E94541B20E030E040E2AB
:101ED00051E40E947C1A0E94C11B90E080E04AE01D
:101EE0000E94730E8E0D9F1DFF90EF90DF90CF909C
:101EF000BF90AF909F908F907F906F905F904F902A
:101F00000895AF92BF92DF92EF92FF920F931F93CB
:101F1000CF93DF93CDB7DEB7C654D1090FB6F8948F
:101F2000DEBF0FBECDBF81E08093CC0288E68093F8
:101F3000EE021092CD021092EF0260E088EF93E083
:101F40000E94C60A0E949B0967E088E60E94CC08AE
:101F500010923D0380933C030E948D018F77282FC0
:101F600030E044E0359527954A95E1F7922F990F97
:101F7000990FF22EF91AFF0CF80E0E948D019C01A8
:101F800054E0359527955A95E1F72F703327922F16
:101F9000990F990FE22EE91AEE0CE80E0E948D01BE
:101FA0009C0164E0359527956A95E1F72F703327FA
:101FB000922F990F990FD22ED91ADD0CD80E0E94AC
:101FC0008D010E948D019C0174E0359527957A95CD
:101FD000E1F72F703327922F990F990F022F091BCA
:101FE000000F080F0E948D019C01E4E035952795B4
:101FF000EA95E1F72F703327922F990F990F122F3F
:10200000191B110F180F0E948D019C01F4E03595EA
:102010002795FA95E1F72F703327922F990F990F93
:10202000291B220F280F622F70E05B0180E3A81AA2
:1020300088EFB80A86E4E7E0F1E0DE01119601904E
:102040000D928A95E1F7402F50E0E8E6F0E081E05C
:10205000811730F49491490F511D8F5F3196F8CF5D
:10206000133020F0237011F44F5F5F4FC5018D5C7A
:1020700097409695879596958795EDE6F1E06E9F4A
:1020800090016F9F300D7E9F300D1124820F931FA2
:102090000596840F951F67E070E00E94161C4AE0C9
:1020A000489F9001499F300D112481E090E08C0FF2
:1020B0009D1F820F931F0E94580E80E20E94E5022E
:1020C000602F70E090E080E04AE00E94730E8EE2A4
:1020D0000E94E502612F70E090E080E04AE00E94FB
:1020E000730E8EE20E94E502B501BB0C880B990BC2
:1020F0004AE00E94730E80EB91E00E94580E6D2D15
:1021000070E090E080E04AE00E94730E8AE30E9453
:10211000E5026E2D70E090E080E04AE00E94730ED0
:102120008AE30E94E5026F2D70E090E080E04AE0D3
:102130000E94730E81EA91E00E94580ECA5BDF4F45
:102140000FB6F894DEBF0FBECDBFDF91CF911F91C8
:102150000F91FF90EF90DF90BF90AF900895CF93D5
:10216000DF93FC0101900020E9F79F012150310924
:10217000281B390BA0913204FC0150E040E080E0C4
:1021800070E060E0E90121972417350771F0919123
:102190009A1308C04617570729F04C175D0729F016
:1021A0008F5FBA014F5F5F4FEFCF811107C081E0B2
:1021B000232B09F480E0DF91CF9108958F5FFBCF4F
:1021C0000F931F93CF93DF93C62FD0E09E012C5F18
:1021D0003F4F8E01000F111F0097B9F1DC010D90E8
:1021E0000020E9F7220F331FF901EC5DFB4F129736
:1021F000B183A083F801EC5DFB4F91838083BE0126
:10220000660F771F605D7B4F0C5D1B4FF80180816F
:1022100091810E94E219F80120813181CC0FDD1FEC
:10222000C85DDB4F39832883FC0101900020E9F76A
:10223000AF01481B590B240F351FF8013183208350
:10224000DF91CF911F910F910895220F331FF90154
:10225000EC5DFB4FD801AC5DBB4F2D913C91808173
:1022600091818217930758F690E080E0E9CF0E94B1
:10227000B11D85ED8093BC008091180390911903E6
:10228000A0911A03B0911B030796A11DB11D23E075
:10229000B695A795979587952A95D1F72091BC007B
:1022A00024FD03C010921603089540911803509125
:1022B000190360911A0370911B03452B462B472B82
:1022C00069F30097A105B10541F025E32A95F1F7DF
:1022D00000000197A109B109E1CF809117030C9487
:1022E000AB081F920F920FB60F9211242F933F93BA
:1022F0004F935F936F937F938F939F93AF93BF930E
:10230000EF93FF938091430390914403A091450381
:10231000B0914603892B8A2B8B2BD1F190913E03F0
:10232000E0913F03F0914003808189278083809171
:10233000430390914403A0914503B09146031816BE
:1023400019061A061B069CF48091430390914403DE
:10235000A0914503B09146030197A109B10980936B
:10236000430390934403A0934503B0934603FF9126
:10237000EF91BF91AF919F918F917F916F915F91FD
:102380004F913F912F910F900FBE0F901F90189576
:1023900080910001E3E7F2E0E4919FEF9093000168
:1023A000E13051F030F0E23069F060E00E940A0361
:1023B000DECF10926E00F9CF90916F009D7F9093C9
:1023C0006F00F3CF909170009D7F9093700091E02B
:1023D0009093B0009091B100987F94609093B10079
:1023E0001092B300E2CF1F920F920FB60F921124FA
:1023F0002F933F934F935F936F937F938F939F930D
:10240000AF93BF93EF93FF938BE593E00E945B0242
:10241000FF91EF91BF91AF919F918F917F916F91BC
:102420005F914F913F912F910F900FBE0F901F9092
:1024300018951F920F920FB60F9211242F938F931E
:102440009F93EF93FF93E0916B03F0916C03808176
:10245000E0917103F091720382FD1BC09081809125
:1024600074038F5F8F7320917503821741F0E091A1
:102470007403F0E0E55AFC4F958F80937403FF914D
:10248000EF919F918F912F910F900FBE0F901F9002
:1024900018958081F4CF1F920F920FB60F921124DE
:1024A0002F933F938F939F93AF93BF9380914B0252
:1024B00090914C02A0914D02B0914E0230914A028F
:1024C00023E0230F2D3758F50196A11DB11D209350
:1024D0004A0280934B0290934C02A0934D02B0931A
:1024E0004E0280914F0290915002A0915102B09102
:1024F00052020196A11DB11D80934F02909350028C
:10250000A0935102B0935202BF91AF919F918F91CE
:102510003F912F910F900FBE0F901F90189526E8B6
:10252000230F0296A11DB11DD2CF1F920F920FB69D
:102530000F9211242F933F934F935F936F937F9349
:102540008F939F93AF93BF93EF93FF938091B900C5
:10255000887F803609F44AC0F0F5883209F4A7C0B4
:1025600018F5803109F49BC0B8F4882309F4F9C048
:10257000883009F494C0FF91EF91BF91AF919F9182
:102580008F917F916F915F914F913F912F910F901C
:102590000FBE0F901F901895883109F488C08032C3
:1025A00051F78093140314C0803409F49DC040F4A3
:1025B0008033B9F38833F9F68093140385ECB0C007
:1025C000803509F485C0883509F496C0883499F6B9
:1025D0000E943911D0CF883909F48CC038F588377A
:1025E00029F050F4883611F0803729F683E0809383
:1025F00016031092490257C0883809F47BC080390D
:1026000019F0803809F0B7CF80914902803208F084
:1026100071C0E091490281E08E0F80934902809160
:10262000BB00F0E0E75DFD4F80833DC0803B39F0AB
:10263000E0F4803A09F479C0883A09F09CCF84E04C
:10264000809316031092280210922702E0915502FF
:10265000F091560209958091270281110FC081E007
:10266000809327021092070209C0803C09F4A6CF8C
:10267000883C09F4A3CF883B09F07DCFE091280284
:1026800081E08E0F80932802F0E0E95FFD4F8081AA
:102690008093BB00909128028091270229C08091ED
:1026A00011038093BB0085EC8093BC0064CF9091B4
:1026B000130380911203981758F5E091130381E0FA
:1026C0008E0F80931303F0E0E051FD4F8081E9CF3E
:1026D000E091130381E08E0F809313038091BB0080
:1026E000F0E0E051FD4F808390911303809112033D
:1026F0009817C8F285E8D8CFE091130381E08E0FD8
:10270000809313038091BB00F0E0E051FD4F808384
:102710008091150381115CCF81E08093100384EADE
:102720008093BC001092160326CF85EC8093BC00EA
:102730001092160380914902803230F4E0914902F0
:10274000F0E0E75DFD4F10826091490270E0E0919A
:102750005302F091540289E292E0099510924902E5
:102760000ACF1092140334CF10925E0310925D03CF
:1027700088EE93E0A0E0B0E080935F039093600365
:10278000A0936103B093620321E831E030935C03CE
:1027900020935B0325EC30E03093680320936703BC
:1027A00024EC30E030936A032093690320EC30E09E
:1027B00030936C0320936B0321EC30E030936E0375
:1027C00020936D0322EC30E03093700320936F036D
:1027D00026EC30E03093720320937103109274035F
:1027E0001092750310927603109277031092FB03F8
:1027F0001092FA038093FC039093FD03A093FE03D1
:10280000B093FF0383E991E09093F9038093F80379
:102810008FEF809304041092060410920504109226
:10282000100410920F048FEF9FEFDC0180930B04D4
:1028300090930C04A0930D04B0930E0410923504F1
:102840001092340480E490E090933704809336042F
:10285000109238041092390410923A0410923B04FA
:1028600010923C0481E490E00E948C1C90933E0402
:1028700080933D04009729F020E4FC0111922A95F1
:10288000E9F78BE380933004109231048CE280935B
:1028900032041092330410922504109224041092F2
:1028A00029041092280410922D0410922C041092E6
:1028B00027041092260410922B0410922A041092DE
:1028C0002F0410922E0487E0809316048BE08093EF
:1028D0001704EFE8F2E0E491E0931804EBE7F2E08C
:1028E000E491E093190480E89EE3A0E0B0E08093D7
:1028F0001E0490931F04A0932004B0932104089514
:10290000CF93DF93CDB7DEB760970FB6F894DEBFF5
:102910000FBECDBF789484B5826084BD84B58160DC
:1029200084BD85B5826085BD85B5816085BD80919A
:102930006E00816080936E00109281008091810012
:10294000826080938100809181008160809381000A
:10295000809180008160809380008091B1008460CC
:102960008093B1008091B00081608093B00080912D
:102970007A00846080937A0080917A0082608093EC
:102980007A0080917A00816080937A0080917A0049
:10299000806880937A001092C10064E670E080E065
:1029A00090E00E940A06E0916B03F0916C0382E0D4
:1029B0008083E0916703F09168031082E0916903DE
:1029C000F0916A0380E1808310927303E0916F03BA
:1029D000F091700386E08083E0916D03F0916E03C7
:1029E000808180618083E0916D03F0916E0380812E
:1029F00088608083E0916D03F0916E038081806830
:102A00008083E0916D03F0916E0380818F7D8083E0
:102A100010923D0310923C031092CD021092EF02EF
:102A20000E948D088BED91E09093560280935502A1
:102A30008CED91E0909354028093530211E0109337
:102A4000CC0288E68093EE020E949B0962E08091AE
:102A500016040E9456030E943D06605D774081097E
:102A6000910960931A0470931B0480931C04909343
:102A70001D0487E38093230480916A02811144C07E
:102A800010925C0210925B028FEF80935F02809342
:102A9000600280936102809362028093630280935C
:102AA00064021093650210926702109266021092FF
:102AB0005E0210925D028091550390915603892B1E
:102AC00031F489E592E09093560380935503E091A9
:102AD0005702F0915802309721F089E592E09583F2
:102AE000848389E592E09093580280935702109274
:102AF0006902109268028FE691E090935A028093E7
:102B0000590281E080936A02559A82E792E090939D
:102B10005C0280935B028EE190E090936702809369
:102B200066028091070490910804A0910904B09175
:102B30000A04843C29E09207A105B10520F484EC45
:102B400099E0A0E0B0E08093070490930804A0937C
:102B50000904B0930A0483EB90E00E94650E0E9482
:102B60003C0E90E0880F892F881F990B892B21F04C
:102B700081E990E00E94650ECE010496988B8F87C4
:102B80001E019FE0290E311CECEC8E2EE2E09E2E01
:102B90002E01E7E04E0E511CEE24EA948BE593E003
:102BA0000E943B02892B09F45CC38BE593E00E94F1
:102BB0001902909138049111F1CF8A3031F18D30A2
:102BC00069F32091340430913504409136045091DA
:102BD00037042417350710F7E0913D04F0913E04C7
:102BE000A9014F5F5F4F5093350440933404E20FC7
:102BF000F31F80830E943D066093390470933A046A
:102C000080933B0490933C04C9CFE0913D04F09144
:102C10003E048091340490913504E80FF91F10822E
:102C200060E080913D0490913E040E94E01068E6CF
:102C3000762E7AE0F72E009709F4FEC261E00E943A
:102C4000E0108C0163EB71E00E94BD1D892B09F03F
:102C5000ACC080912604909127040E94AF1086306A
:102C600009F09EC08E010F5F1F4F61E090E080E091
:102C70000E94E0100E94C419F80181938F01E415AD
:102C8000F50599F76E80CD80DC800B811A81A980D3
:102C9000BB24B394B092CC027092EE021092CD029B
:102CA0001092EF0260E088EF93E00E94C60A862D42
:102CB0006F2D0E940A1C682F660F680F660F660D45
:102CC00088EF93E00E94C60A8C2D6F2D0E940A1C8B
:102CD000682F660F680F660F6C0D88EF93E00E94F7
:102CE000C60A8D2D6F2D0E940A1C682F660F680F73
:102CF000660F6D0D88EF93E00E94C60A60E088EFD2
:102D000093E00E94C60A802F6F2D0E940A1C682F34
:102D1000660F680F660F600F88EF93E00E94C60A87
:102D2000812F6F2D0E940A1C682F660F680F660F97
:102D3000610F88EF93E00E94C60A8A2D6F2D0E94D2
:102D40000A1C682F660F680F660F6A0D88EF93E004
:102D50000E94C60A0E949B090E943C0E182FB09246
:102D6000CC027092EE021092CD021092EF026FE050
:102D700088EF93E00E94C60A612F6F7788EF93E097
:102D80000E94C60A0E949B0981E592E00E94CA0245
:102D90000E94810F60E090E080E00E94E0104BCF45
:102DA00081E192E00E94650EF5CF6EEB71E0C80103
:102DB0000E94BD1D892B09F04DC00E94810F81E04A
:102DC0008093CC027092EE021092CD021092EF022C
:102DD00061E188EF93E00E94C60A0E949B0962E0CD
:102DE00088E60E94CC0810923D0380933C030E9429
:102DF0008D01182F0E948D01BC0156E075956795D5
:102E00005A95E1F763707727072E000C880B990B12
:102E10000E941D1A20E030E040E85EE30E947C1A28
:102E20005B016C01612F110F770B880B990B0E94CE
:102E30001D1A9B01AC01C601B5010E94551B0E94E1
:102E4000B70E82EC91E00E94580E81EA91E00E9458
:102E5000580EA0CF66EC71E0C8010E94BD1D892B01
:102E600009F047C042E7C42E42E0D42EF601E082CA
:102E700011821282339622E0EC3CF207C1F70E94E5
:102E8000490668EB7BE080E090E00E940A0602E7DA
:102E900012E0F8011082E18212820D5F1F4FF2E012
:102EA0000C3C1F07B1F70E94490668EB7BE080E00D
:102EB00090E00E940A06E2E7F2E010821182E282CC
:102EC00033960E171F07C9F70E94490668EB7BE08F
:102ED00080E090E00E940A06F601108211821282C0
:102EE000F3E0CF0ED11C0C151D05B1F70E94490669
:102EF00051CF6FEC71E0C8010E94BD1D892B09F014
:102F000056C080912604909127040E94AF10811131
:102F100020C08EE0EDE4F1E0DE01119601900D920B
:102F20008A95E1F78E010F5F1F4F48EE53E060E096
:102F300070E0F801819191918F010E9487036CEDFF
:102F400075E080E090E00E940A062016310669F7DD
:102F500021CF61E090E0813091F480E00E94E010A8
:102F60000E94C41948EE53E060E070E00E948703BD
:102F70006CED75E080E090E00E940A060BCF80E0E7
:102F80000E94E0100E94C4198C0161E090E080E092
:102F90000E94E0100E94C4195C01D12CC12CB60122
:102FA000AC01C8010E948703C601B501E5CF66EDFB
:102FB00071E0C8010E94BD1D892B09F0BFC00E94AD
:102FC0006007882341F0809117048C3009F462C0B7
:102FD00038F48B30F1F060E070E080EC9FE741C0A6
:102FE00085518230C0F710911304612F70E0762F65
:102FF000662766277F7780911404682B90E080E035
:103000000E941B1A2DEC3CEC4CEC5DE30E947C1AF8
:103010005DC06091130470E090E080E00E941B1A94
:103020005B016C011091140417FF0AC0AC019B01F5
:1030300060E070E080E89FEB0E94541B5B016C0134
:103040001F70612F70E090E080E00E941D1A2DEC4F
:103050003CEC4CEC5DE30E947C1AA60195010E94B9
:10306000551B0E94B70E8CED91E00E94580E0E94F5
:103070006007882351F0809117048B3030F08D3039
:1030800048F18551823008F447C060E070E080EC80
:103090009FE73CC010911304612F70E090E080E046
:1030A0000E941B1A5B016C01609114046F7070E048
:1030B00090E080E00E941D1A2DEC3CEC4CEC5DE3AE
:1030C0000E947C1AA60195010E94551B17FFC9CFCB
:1030D0009058C7CF6091120470E090E080E00E94A9
:1030E0001D1A2DEC3CEC4CEC5DE30E947C1A5B015C
:1030F0006C016091110470E090E080E00E941D1A64
:103100009B01AC01C601B5010E94551B0E94B70E80
:1031100085E20E94E50299CE60911104709112043B
:1031200076276727762790E080E00E941B1A2DEC17
:103130003CEC4CEC5DE30E947C1AE8CF63EE71E05E
:10314000C8010E94BD1D892B09F055C0809126043D
:10315000909127040E94AF108330F9F48E010F5F25
:103160001F4F61E090E080E00E94E0100E94C419CF
:10317000F80181938F018F8598898E179F0789F7B2
:103180008B819A812981E2E7F2E020839183828317
:1031900033968E169F06C9F7A9CE843049F561E0B3
:1031A00090E080E00E94E0100E94C4198C01FE01B2
:1031B00031966F0161E090E080E00E94E0100E9493
:1031C000C419F60181936F018F8598898E179F0727
:1031D00089F711278B819A81F801EE0FFF1FE00F0D
:1031E000F11FEE58FD4F29812083918382837ECE8B
:1031F00083EF91E0D7CD69EE71E0C8010E94BD1D5B
:10320000009719F4FC010995C5CD6FEE71E0C80176
:103210000E94BD1D892B19F48FED90E0C3CD86ED82
:1032200090E00E94CA020115110519F0C8010E9420
:10323000580E85EC90E0B6CD809138048111AECC6B
:1032400010923504109234044091360450913704A2
:1032500070E060E080913D0490913E040E94B61DB4
:103260009BCC8091340490913504892B09F46CC077
:103270000E943D060091390410913A0420913B04CC
:1032800030913C04601B710B820B930B6B3F7105FB
:103290008105910508F458C080913404909135045B
:1032A000892B09F451C000913D0410913E0464EF54
:1032B00071E0C8010E94C61D892B39F46CEF71E0E2
:1032C000C8010E94C61D892B59F182E7E82E82E0D1
:1032D000F82E87018FEFF8018083818382830D5F51
:1032E0001F4F80169106B9F70E94490644E650E048
:1032F00060E070E088EB9BE00E94870364E670E08A
:1033000080E090E00E940A06F7011082118212828A
:10331000F3E0EF0EF11CE016F106B1F70E9449064A
:1033200080913804811110C0109235041092340439
:10333000409136045091370470E060E080913D0484
:1033400090913E040E94B61D61E070E080E090E044
:103350000E940A0680E090E0892B09F419CC0E94B3
:103360004702882309F410CC0E9400000DCC809104
:103370003804811108C080913D0490913E0400976B
:1033800011F00C94281D0895FC0188279927E894D2
:1033900021912032E9F3293010F02E30C8F32B327E
:1033A00041F02D3239F4689404C00E940E1A820F45
:1033B000911D219120532A30C0F31EF490958195E0
:1033C0009F4F08954FE354E00E94E7190895FA01D2
:1033D000A191B081009719F41097E1F0CD01DC01C3
:1033E000CD010D90002011F4C00113C0FB0121910B
:1033F000222319F02015D9F7F3CFFB0121912015D5
:1034000019F41E92119606C02223C1F70D900020D8
:10341000A1F7D001FA01A193B08308957AE0979FB4
:10342000902D879F802D910D112408950E94581A88
:1034300008F481E00895E89409C097FB3EF4909564
:103440008095709561957F4F8F4F9F4F9923A9F07D
:10345000F92F96E9BB279395F6958795779567950C
:10346000B795F111F8CFFAF4BB0F11F460FF1BC050
:103470006F5F7F4F8F4F9F4F16C0882311F096E9E3
:1034800011C0772321F09EE8872F762F05C0662391
:1034900071F096E8862F70E060E02AF09A95660F4A
:1034A000771F881FDAF7880F9695879597F9089503
:1034B000990F0008550FAA0BE0E8FEEF1616170645
:1034C000E807F907C0F012161306E407F50798F0AD
:1034D000621B730B840B950B39F40A2661F0232BC6
:1034E000242B252B21F408950A2609F4A140A69542
:1034F0008FEF811D811D08950E948F1A0C94001B6F
:103500000E94F21A38F00E94F91A20F0952311F067
:103510000C94E91A0C94EF1A11240C94341B0E9499
:10352000111B70F3959FC1F3950F50E0551F629FDB
:10353000F001729FBB27F00DB11D639FAA27F00D0C
:10354000B11DAA1F649F6627B00DA11D661F829F33
:103550002227B00DA11D621F739FB00DA11D621F18
:10356000839FA00D611D221F749F3327A00D611D35
:10357000231F849F600D211D822F762F6A2F112417
:103580009F5750409AF0F1F088234AF0EE0FFF1F4A
:10359000BB1F661F771F881F91505040A9F79E3FA1
:1035A000510580F00C94E91A0C94341B5F3FE4F34E
:1035B000983ED4F3869577956795B795F795E795F7
:1035C0009F5FC1F7FE2B880F911D9695879597F900
:1035D000089597F99F6780E870E060E008959FEF95
:1035E00080EC089500240A9416161706180609069A
:1035F000089500240A941216130614060506089569
:10360000092E0394000C11F4882352F0BB0F40F4F0
:10361000BF2B11F460FF04C06F5F7F4F8F4F9F4F30
:10362000089557FD9058440F551F59F05F3F71F0B2
:103630004795880F97FB991F61F09F3F79F0879519
:103640000895121613061406551FF2CF4695F1DFA2
:1036500008C0161617061806991FF1CF8695710532
:10366000610508940895E894BB2766277727CB0166
:1036700097F908950E94451BA59F900DB49F900D4A
:10368000A49F800D911D11240895A29FB001B39FA6
:10369000C001A39F700D811D1124911DB29F700D5B
:1036A000811D1124911D08955058BB27AA270E94FF
:1036B0006C1B0C94001B0E94F21A38F00E94F91A3D
:1036C00020F039F49F3F19F426F40C94EF1A0EF40D
:1036D000E095E7FB0C94E91AE92F0E94111B58F3BF
:1036E000BA17620773078407950720F079F4A6F5E7
:1036F0000C94331B0EF4E0950B2EBA2FA02D0B016A
:10370000B90190010C01CA01A0011124FF27591B26
:1037100099F0593F50F4503E68F11A16F040A22F2C
:10372000232F342F4427585FF3CF4695379527959D
:10373000A795F0405395C9F77EF41F16BA0B620B9C
:10374000730B840BBAF09150A1F0FF0FBB1F661FE3
:10375000771F881FC2F70EC0BA0F621F731F841F26
:1037600048F4879577956795B795F7959E3F08F04C
:10377000B0CF9395880F08F09927EE0F979587950E
:1037800008950E94191B88F09F5798F0B92F992728
:10379000B751B0F0E1F0660F771F881F991F1AF03C
:1037A000BA95C9F714C0B13091F00E94331BB1E053
:1037B00008950C94331B672F782F8827B85F39F052
:1037C000B93FCCF3869577956795B395D9F73EF4D5
:1037D00090958095709561957F4F8F4F9F4F08957D
:1037E0000E94581A08F48FEF08950E94581A880B07
:1037F000990B0895DB018F939F930E943A1BBF9111
:10380000AF91A29F800D911DA39F900DB29F900D2F
:1038100011240895991B79E004C0991F961708F0A8
:10382000961B881F7A95C9F780950895AA1BBB1B24
:1038300051E107C0AA1FBB1FA617B70710F0A61BB0
:10384000B70B881F991F5A95A9F780959095BC01D1
:10385000CD01089597FB072E16F4009407D077FD4D
:1038600009D00E94161C07FC05D03EF49095819566
:103870009F4F0895709561957F4F0895A1E21A2E8C
:10388000AA1BBB1BFD010DC0AA1FBB1FEE1FFF1F04
:10389000A217B307E407F50720F0A21BB30BE40B54
:1038A000F50B661F771F881F991F1A9469F760959B
:1038B0007095809590959B01AC01BD01CF01089555
:1038C000052E97FB1EF400940E94771C57FD07D02D
:1038D0000E943E1C07FC03D04EF40C94771C5095BC
:1038E0004095309521953F4F4F4F5F4F08959095EC
:1038F0008095709561957F4F8F4F9F4F08950E94DF
:10390000451BB7FF0895821B930B0895EE0FFF1F11
:103910000590F491E02D09940F931F93CF93DF93BB
:103920008230910510F482E090E0E0914304F09140
:10393000440430E020E0B0E0A0E0309799F4211595
:10394000310509F44AC0281B390B24303105D8F55C
:103950008A819B816115710589F1FB0193838283C3
:10396000FE0111C04081518102811381481759071E
:10397000E0F04817590799F4109761F012960C93EC
:10398000129713961C933296CF01DF91CF911F911E
:103990000F9108950093430410934404F4CF21152C
:1039A000310551F04217530738F0A901DB019A01A4
:1039B000BD01DF01F801C1CFEF01F9CF90934404BD
:1039C00080934304CDCFFE01E20FF31F81939193C7
:1039D0002250310939832883D7CF20914104309177
:1039E0004204232B41F420910301309104013093D0
:1039F00042042093410420910101309102012115DC
:103A0000310541F42DB73EB74091050150910601B3
:103A1000241B350BE0914104F0914204E217F307B7
:103A2000A0F42E1B3F0B2817390778F0AC014E5F2E
:103A30005F4F2417350748F04E0F5F1F5093420425
:103A400040934104819391939FCFF0E0E0E09CCFBD
:103A5000CF93DF930097E9F0FC0132971382128233
:103A6000A0914304B0914404ED0130E020E01097B0
:103A7000A1F420813181820F931F20914104309164
:103A800042042817390709F061C0F0934204E0931B
:103A90004104DF91CF910895EA01CE17DF07E8F5E1
:103AA0004A815B819E0141155105B1F7E901FB8314
:103AB000EA8349915991C40FD51FEC17FD0761F4B2
:103AC000808191810296840F951FE90199838883F3
:103AD000828193819B838A83F0E0E0E012968D914E
:103AE0009C9113970097B9F52D913C911197CD01B9
:103AF0000296820F931F20914104309142042817AF
:103B0000390739F6309751F5109244041092430466
:103B1000B0934204A0934104BCCFD383C2834081BD
:103B20005181840F951FC817D90761F44E5F5F4F0D
:103B300088819981480F591F518340838A819B81D5
:103B4000938382832115310509F0B0CFF0934404AB
:103B5000E09343049ECFFD01DC01C0CF13821282AB
:103B6000D7CF81E090E0F8940C94E01DDC0101C017
:103B70006D9341505040E0F70895FB01DC018D91B9
:103B8000019080190110D9F3990B0895FB0151910F
:103B90005523A9F0BF01DC014D9145174111E1F713
:103BA00059F4CD010190002049F04D91401541118B
:103BB000C9F3FB014111EFCF81E090E00197089537
:103BC00011E0CFE4D1E004C0FE010E94861C2196E2
:0A3BD000C035D107C9F7F894FFCF04
:103BDA00FF00004504800053756E6461790000009F
:103BEA00004D6F6E6461790000000054756573645E
:103BFA0061790000005765646E65736461790054E9
:103C0A00687572736461790000467269646179004B
:103C1A0000000053617475726461790000DC05D09C
:103C2A0007C409B80BAC0DA00F94110000000037AF
:103C3A001137113711180E140E110E00000000CEA4
:103C4A000D8A0D880D180E140ED801350B000000D0
:103C5A00007D02DD010A02EA023B0219022D02007E
:103C6A00000000C60A990AF50A820A920A7A0183B2
:103C7A000A0D0A006E616E00696E66006F76660054
:103C8A002E20007274635F61646A757374007274C3
:103C9A006300C2B043007365676D656E747300623A
:103CAA00757A7A657200646874313100C2B0432053
:103CBA007C2000636F6C6F720072657365740068B4
:103CCA00656C70004F4B2B434F4E4E004F4B2B4CA5
:043CDA004F535400F0
:00000001FF
